:100000000C9443050C946B050C946B050C946B05D8
:100010000C946B050C946B050C946B050C946B05A0
:100020000C946B050C946B050C946B050C94341BB1
:100030000C946B050C946B050C946B050C946B0580
:100040000C9473190C946B050C94E3190C94BD1962
:100050000C946B050C946B050C946B050C946B0560
:100060000C94151A0C946B05084AD73B3BCE016ED5
:1000700084BCBFFDC12F3D6C74319ABD56833DDAFF
:100080003D00C77F11BED9E4BB4C3E916BAAAABE0E
:10009000000000803F002C002C0053617665642036
:1000A00054696D657253657475702E63616C582F59
:1000B00063616C592F63616C5A203D20002C002C29
:1000C0000043616C6962726174696F6E20636F6D69
:1000D000706C6574652E204F666673657473202896
:1000E0006465672F73293A20005374617274696ED6
:1000F00067204D5055206175746F2D63616C696286
:10010000726174696F6E3A206B65657020626F6111
:100110007264207374696C6C2E00417070726F6130
:100120006368696E67206C6170206C696D6974200A
:100130002D20737769746368696E6720746F20423D
:10014000555250004C6170206C696D69742065785F
:10015000636565646564202D207368757474696EC9
:100160006720646F776E00206C6574746572207010
:10017000726F66696C6520616E642076616C75656E
:1001800020776974682061207370616365206265FF
:10019000747765656E00205620466163746F7279CE
:1001A00020726573657420454550524F4D2028726A
:1001B0006571756972657320636F6E6669726D61D2
:1001C00074696F6E290020712065786974207769E1
:1001D0007468696F757420736176696E6700207743
:1001E0002075706C6F616420706173746564206346
:1001F0006F6E66696775726174696F6E2073747271
:10020000696E67002070207072696E7420636F6E73
:1002100066696775726174696F6E20737472696E56
:100220006720666F72206261636B757000204720E3
:1002300072756E2063616C6962726174696F6E20A1
:100240006F66204779726F200020284F296E206F3B
:100250007220286F29666620746F2074657374207D
:100260004C45447300207320736176650020722032
:100270007265667265736800202A2A2A2A2A2A2A49
:100280002A2A2A2A2A2A2A2A2A2A2A2A2A2A2A2ACE
:100290002A2A2A0020332020596177204178697367
:1002A00020202028303D582C313D592C323D5A29F0
:1002B000200020322020526F6C6C2041786973201E
:1002C0002028303D582C313D592C323D5A292000F0
:1002D0002031202050697463682041786973202898
:1002E000303D582C313D592C323D5A292000206494
:1002F00065672F732900202800205A206779726FC4
:100300002063616C205A2000206465672F732900E8
:100310002028002059206779726F2063616C205972
:100320002000206465672F732900202800205820B2
:100330006779726F2063616C20582000204A20206A
:100340005961772072617465207468726573686F93
:100350006C6420286465672F73656329200020463C
:100360002020526F6C6C206761696E2030202D3127
:100370003830200020482020457863657373697603
:1003800065207069746368207468726573686F6C47
:10039000642028646567207065722073616D706CDD
:1003A000652920002045202050697463682067611A
:1003B000696E20302D20313830200020552020411A
:1003C00075746F20737065656420252F6D696E20CC
:1003D00000204220204D616E657576657220626F47
:1003E0006F73742000205220204D616E6575766514
:1003F00072207278200020502020506F7320747279
:10040000696D2000204D20204C6170206C696D6961
:10041000742000204C20204C617020636F756E7436
:100420002000206420312C322C3320616363656C02
:100430002054696D65206D73656320002063203151
:100440002C322C332041726D2054696D6520736508
:10045000632000206220312C322C3320466C79201E
:1004600054696D65207365632000206120312C3252
:100470002C3320466C7920537065656420302D3113
:10048000383020202000554E4B4E4F5720535441BA
:1004900054450052656164792E2050726573732053
:1004A000273F2720666F72206D656E752C202721EF
:1004B0002720746F20746F67676C652074656C65A6
:1004C0006D6574727920283139323030206261755F
:1004D00064292E0046697273742072756E206465FB
:1004E000746563746564202D2072756E6E696E6725
:1004F000204D50552063616C6962726174696F6E42
:1005000000F4014B029F02EE0235037303A503CAF8
:1005100003E003E803E003CA03A50373033503EE16
:10052000029F024B02F4019D014901FA00B30075DC
:100530000043001E000800000008001E0043007574
:1005400000B300FA0049019D01F401207374617445
:10055000653A002062746E3A00204700205900205E
:100560006C6564733A520020626F6F73743A0020B6
:100570007961773A0020726F6C6C3A002070697470
:1005800063683A00212073706565643A0021205445
:10059000656C656D65747279204F4646005E5E5EDF
:1005A0005E5E5E5E5E5E5E5E5E5E5E5E5E5E5E5E6B
:1005B0005E5E5E5E5E5E5E5E5E5E5E5E5E5E5E5E5B
:1005C0005E5E5E5E00204461766520536965676CFF
:1005D0006572206E65396E2E6461766540676D6167
:1005E000696C2E636F6D002068747470733A2F2FDE
:1005F0006769746875622E636F6D2F6E65396E0062
:10060000204120636F6E74726F6C206C696E652080
:1006100074696D6520616E64207370656564207215
:100620006567756C61746F720020436865657365FA
:10063000686561642054696D6572005E5E5E5E5E31
:100640005E5E5E5E5E5E5E5E5E5E5E5E5E5E5E5ECA
:100650005E5E5E5E5E5E5E5E5E5E5E5E5E5E5E5EBA
:100660005E5E00436F6E66696775726174696F6E76
:100670002075706C6F6164656420616E64207361C5
:10068000766564207375636365737366756C6C79E6
:100690002E00506173746520636F6E6669677572B2
:1006A0006174696F6E20737472696E672028636F5E
:1006B0006D6D612D736570617261746564293A00B6
:1006C000434F4E4649473A00466163746F72792042
:1006D00072657365742063616E63656C6C65642E0E
:1006E0000052756E202747272066726F6D20746850
:1006F00065206D656E7520746F20726563616C692D
:10070000627261746520746865204D505520696679
:10071000206E65656465642E00466163746F72794E
:1007200020726573657420636F6D706C65746520ED
:10073000E280942064656661756C747320777269D9
:100740007474656E20746F20454550524F4D2E00D5
:10075000466163746F7279207265736574204545D4
:1007600050524F4D207265717565737465642E200B
:1007700053656E642027592720746F20636F6E665F
:1007800069726D2E004C4544206F6E20004C45442C
:10079000206F6666200059617720417869732028B0
:1007A000303D582C20313D592C20323D5A293A20D9
:1007B00000526F6C6C20417869732028303D582CB2
:1007C00020313D592C20323D5A293A20005069747D
:1007D000636820417869732028303D582C20313DD2
:1007E000592C20323D5A293A200063616C207A202E
:1007F0000063616C2079200063616C2078200041E7
:1008000075746F2073706565642070657263656EC2
:100810007420706572206D696E75746520736574DF
:1008200020746F3A20005365742072783A20005388
:100830006574206D616E6575766572206761696E9D
:100840002072782028302D313830293A2000536525
:1008500074204C61704C696D697420286C617073F0
:10086000293A20005265736574206C617020636FB3
:10087000756E7400736176696E67206461746120BF
:10088000646F6E6500736176696E67206461746180
:100890002077616974006578697420776968746F7E
:1008A000757420736176696E670059617720726193
:1008B0007465207468726573686F6C642028646561
:1008C000672F736563292000726F6C6C2067616904
:1008D0006E203020313830200045786365737369AD
:1008E0007665207069746368207468726573686FD8
:1008F0006C642028646567207065722073616D7078
:100900006C652920007069746368206761696E20D6
:1009100030203138302000496E76616C6964207077
:10092000726F66696C652028312D332900206D7344
:100930000020746F200053657420616363656C2030
:1009400074696D6520666F722070726F66696C6580
:100950002000496E76616C69642070726F66696C04
:10096000652028312D332900206D730020746F20FD
:10097000005365742061726D2074696D6520666F27
:10098000722070726F66696C652000496E76616CCA
:1009900069642070726F66696C652028312D332977
:1009A00000206D730020746F200053657420666C06
:1009B000792074696D6520666F722070726F666948
:1009C0006C652000496E76616C69642070726F6698
:1009D000696C652028312D33290020746F20005365
:1009E000657420666C7920737065656420666F722B
:1009F0002070726F66696C652000212054656C65FB
:100A00006D65747279204F464600212054656C65EF
:100A10006D65747279204F464600212054656C65DF
:100A20006D65747279204F4E00000000002400278D
:100A3000002A0000000000250028002B0000000014
:100A40000023002600290004040404040404040212
:100A5000020202020203030303030301020408105B
:100A60002040800102040810200102040810200028
:100A7000000008000201000003040700000000005D
:100A800000000000F01B11241FBECFEFD8E0DEBF36
:100A9000CDBF11E0A0E0B1E0E8E4FFE502C00590C1
:100AA0000D92AC3DB107D9F725E0ACEDB1E001C046
:100AB0001D92AE31B207E1F715E0C3E4D5E004C002
:100AC0002197FE010E94C42DC234D107C9F70E94AC
:100AD000441D0C94A22F0C940000CF92DF92EF9251
:100AE000FF92DC01A03282E0B807D4F5A53BB10546
:100AF00014F0A4EBB0E04091C90428E830E0241BD6
:100B0000310947FD3395220F331F220F331F69012F
:100B1000330FEE08FF084091CA0428E532E0241B99
:100B2000310947FD3395220F331F220F331F032E48
:100B3000000C440B550B2C193D094E095F09B7FFFA
:100B400002C0B0E0A0E00E945B2D24EB30E040E06A
:100B500050E00E94312DC20ED31EE41EF51ED601B8
:100B6000E091C804EC3080F52091C90488E890E059
:100B7000821B910927FD9395880F991F880F991F54
:100B8000A817B90784F02091CA0488E592E0821B77
:100B9000910927FD9395880F991F880F991FA81712
:100BA000B9070CF4CD010297880F991F4FB7F8943D
:100BB0002E2F30E0F901EE0FFF1FE20FF31FEF5869
:100BC000FB4F928381834FBFFF90EF90DF90CF90D8
:100BD0000895833081F028F4813099F08230A9F0B3
:100BE00008958730A9F08830C9F08430B1F480913D
:100BF00080008F7D03C0809180008F77809380007C
:100C0000089584B58F7784BD089584B58F7DFBCF1B
:100C10008091B0008F778093B00008958091B000EC
:100C20008F7DF9CFCF93DF93282F30E0F901E15981
:100C3000F54F8491F901E55AF54FD491F901E95B3B
:100C4000F54FC491CC23A1F081110E94E905EC2F4E
:100C5000F0E0EE0FFF1FE35CF54FA591B491EC912E
:100C6000ED2381E090E009F480E0DF91CF910895D9
:100C700080E090E0FACF1F93CF93DF93282F30E0EE
:100C8000F901E159F54F8491F901E55AF54FD491F5
:100C9000F901E95BF54FC491CC23A9F0162F81111E
:100CA0000E94E905EC2FF0E0EE0FFF1FED5CF54F21
:100CB000A591B4918FB7F894EC91111108C0D0951B
:100CC000DE23DC938FBFDF91CF911F910895DE2B40
:100CD000F8CFCF93DF9390E0FC01E55AF54F2491D4
:100CE000895B954FFC0184918823C9F090E0880FBF
:100CF000991FFC01E75DF54FA591B491FC01ED5CF6
:100D0000F54FC591D49161110DC09FB7F8948C91A6
:100D1000209582238C938881282328839FBFDF918D
:100D2000CF910895623051F49FB7F8943C91822F8F
:100D3000809583238C93E8812E2BEFCF8FB7F89487
:100D4000EC912E2B2C938FBFEACFFC01862F1086BF
:100D50001186608371831282138214821582178236
:100D60001682128613861486158616861786108AB2
:100D7000118A128A138A148A158A168A178A108E83
:100D8000118E138E128E148E158E168E178E10A243
:100D900011A212A213A214A215A216A217A211A6A2
:100DA00010A661E00C9469061F93CF93DF93182F70
:100DB000EB0161E00E946906209739F460E0812F21
:100DC000DF91CF911F910C943B06CF3FD10511F4D9
:100DD00061E0F5CFE12FF0E0E159F54FE491E33028
:100DE00031F140F4E130B1F0E230E1F0C038D1054A
:100DF0007CF7E4CFE73029F1E83059F1E430B1F77E
:100E000080918000806280938000D0938B00C0939B
:100E10008A0004C084B5806884BDC7BDDF91CF91CE
:100E20001F91089584B5806284BDC8BDF7CF8091BD
:100E30008000806880938000D0938900C0938800F0
:100E4000EDCF8091B00080688093B000C093B30074
:100E5000E5CF8091B00080628093B000C093B40071
:100E6000DDCF3FB7F8948091680290916902A0911C
:100E70006A02B0916B0226B5A89B05C02F3F19F0FE
:100E80000196A11DB11D3FBFBA2FA92F982F88270A
:100E9000BC01CD01620F711D811D911D42E0660FE5
:100EA000771F881F991F4A95D1F708958F929F92B7
:100EB000AF92BF92CF92DF92EF92FF924B015C0113
:100EC0000E9431076B017C010E9431076C197D097A
:100ED0008E099F09683E734081059105A8F321E0C2
:100EE000821A9108A108B10888EEC80E83E0D81EC6
:100EF000E11CF11C81149104A104B10429F7FF90B5
:100F0000EF90DF90CF90BF90AF909F908F9008951B
:100F10002FB7F89460916402709165028091660227
:100F2000909167022FBF089508950895AF92BF92E0
:100F3000CF92DF92EF92FF920F931F93CF93DF93A5
:100F40006C017B018B01040F151FEB015E01AE18D4
:100F5000BF08C017D10759F06991D601ED91FC91F6
:100F60000190F081E02DC6010995892B79F7C50123
:100F7000DF91CF911F910F91FF90EF90DF90CF9075
:100F8000BF90AF900895FC01538D448D252F30E024
:100F9000842F90E0821B930B541710F0CF96089586
:100FA00001970895FC01918D828D981761F0A28DB3
:100FB000AE0FBF2FB11D5D968C91928D9F5F9F7379
:100FC000928F90E008958FEF9FEF0895FC01918D2F
:100FD000828D981731F0828DE80FF11D858D90E09C
:100FE00008958FEF9FEF08950F931F930E94880736
:100FF0006093E6027093E7028093E8029093E9021F
:101000008EED92E00E94E60797FF1DC00E948807C0
:101010000091E6021091E7022091E8023091E90286
:10102000601B710B820B930B0091E2021091E302A3
:101030002091E4023091E50260177107820793075F
:10104000F8F28FEF9FEF1F910F910895CF92DF92EB
:10105000EF92FF92CF930E94F407FC0197FD4EC0E0
:101060008D32910521F0C0970A9708F040C0C12C3D
:10107000D12C7601C0E0E130F105D1F0ED32F1057F
:10108000D9F1CF01C0970A9798F4AAE0B0E0A70180
:1010900096010E94502D6F01FF0FEE08FF08C60E4B
:1010A000D71EE81EF91E80E3C81AD108E108F1082E
:1010B0008EED92E00E94D2070E94F407FC01C097D7
:1010C0000A97C8F2E130F105B1F2CC2341F0F09477
:1010D000E094D094C094C11CD11CE11CF11CC70148
:1010E000B601CF91FF90EF90DF90CF9008958EEDF5
:1010F00092E00E94D207AFCFC1E0DACFC12CD12C51
:101100007601EDCFFC01918D228D892F90E0805CDE
:101110009F4F821B91098F73992708958EED92E05E
:101120000E94820821E0892B09F420E0822F089593
:1011300080E090E0892B29F00E948E0881110C94A8
:1011400000000895FC01A48DA80FB92FB11DA35A6A
:10115000BF4F2C91848D90E001968F739927848FD7
:10116000A689B7892C93A089B1898C9183708064FA
:101170008C93938D848D981306C00288F389E02D9B
:1011800080818F7D80830895EF92FF920F931F934C
:10119000CF93DF93EC0181E0888F9B8D8C8D98132A
:1011A0001AC0E889F989808185FF15C09FB7F89436
:1011B000EE89FF896083E889F98980818370806482
:1011C00080839FBF81E090E0DF91CF911F910F91CD
:1011D000FF90EF900895F62E0B8D10E00F5F1F4FDC
:1011E0000F731127E02E8C8D8E110CC00FB607FCEB
:1011F000FACFE889F989808185FFF5CFCE010E9479
:10120000A208F1CFEB8DEC0FFD2FF11DE35AFF4F3C
:10121000F0829FB7F8940B8FEA89FB898081806206
:10122000CFCF0F931F93CF93DF938C01D0E0C0E01B
:10123000F801EC0FFD1F6491662341F08EED92E002
:101240000E94C408892B11F02196F2CFCE01DF91C4
:10125000CF911F910F910895682F8EED92E00C941D
:10126000C408CF93DF93EC01888D8823B9F0AA8955
:10127000BB89E889F9898C9185FD03C0808186FD51
:101280000DC00FB607FCF7CF8C9185FFF2CF8081A0
:1012900085FFEDCFCE010E94A208E9CFDF91CF916B
:1012A000089520911702260F3327331F213231056D
:1012B000ECF42091B402FC0190E080E0243069F06D
:1012C00082E00895A09117022191AC0149505E4F30
:1012D000A40FB52FB11D2C930196861798F380911A
:1012E0001702680F6093170280E0089581E0089567
:1012F0001092B40281E08093B30210928E0261E0FA
:1013000082E10E943B0661E083E10E943B06E9EB3B
:10131000F0E080818E7F808380818D7F808388E470
:101320008093B80085E48093BC000895CF93DF9349
:1013300091E09093F6018823B9F0C091B800D09164
:10134000BA008091BC008A7B8093BC0060E082E19F
:101350000E943B0660E083E10E943B060E94780900
:10136000D093BA00C093B800DF91CF9108958F92C7
:101370009F92AF92BF92CF92DF92EF92FF920F9324
:101380001F93CF93DF93D091DD02D13208F0D7C005
:10139000182FC091DC020E9431076B017C01809103
:1013A000B40281116BC082E08093B4021093B30247
:1013B0008FEF8093B2021092B102D093B002ACEBE7
:1013C000B2E0E0E9F2E080E0D81391C010928F0221
:1013D00080918F02CC0FC82BC0938F0280918E0218
:1013E000813009F088C010928E020E9431076B0193
:1013F0007C0180918F028093BB008091B602909116
:10140000B702A091B802B091B902892B8A2B8B2B1D
:10141000A1F00E9431070091B6021091B70220910D
:10142000B8023091B9026C197D098E099F0906171F
:1014300017072807390708F442C08091BC0083FDD4
:10144000D8CF85EC8093BC000E9431076B017C01F2
:101450008091B402823009F450C08091B2028F3F73
:1014600009F46FC08091B202803209F46CC080919F
:10147000B202803309F469C084E026C08091B602CC
:101480009091B702A091B802B091B902892B8A2B32
:101490008B2B09F484CF0E9431078090B602909084
:1014A000B702A090B802B090B9026C197D098E09FC
:1014B0009F0986169706A806B90608F070CF809196
:1014C000B5020E94960985E01092BB021092DD02DF
:1014D0001092BA02DF91CF911F910F91FF90EF9080
:1014E000DF90CF90BF90AF909F908F9008959D9187
:1014F00091938F5F69CF85EEA5CF8091B6029091D1
:10150000B702A091B802B091B902892B8A2B8B2B1C
:1015100009F49ECF0E9431070091B6021091B702E4
:101520002091B8023091B9026C197D098E099F098A
:10153000061717072807390708F08ACFC0CF81E0C0
:10154000C3CF80E0C1CF82E0BFCF83E0BDCF1F9388
:10155000CF93DF93162FC5E0D4E0A881B98191E045
:101560009093BA0298E69093DC021092BB0210921C
:10157000DD02ED91FC9111970190F081E02D682F33
:10158000CD01099588819981DC01ED91FC91019053
:10159000F081E02D612F099581E0DF91CF911F91BE
:1015A0000C94B7090895E0916D0280916C02E817E0
:1015B00030F4F0E0E259FD4F808190E008958FEF24
:1015C0009FEF089590916D0280916C022FEF3FEF95
:1015D000981748F4E92FF0E0E259FD4F208130E000
:1015E0009F5F90936D02C901089580916C02909164
:1015F0006D02891B990B0895CF92DF92EF92FF92B3
:101600000F931F93CF93DF937C01CB018A0120912D
:10161000BA02222389F0EB016B01C40ED51ECC1552
:10162000DD0569F06991D701ED91FC910190F081A0
:10163000E02DC7010995F3CF642F0E945109C8011D
:10164000DF91CF911F910F91FF90EF90DF90CF909E
:101650000895CF93DF931F92CDB7DEB769832091B2
:10166000BA022223F9F02091DD02203258F021E065
:1016700030E0FC013383228390E080E00F90DF9123
:10168000CF9108958091BB02E82FF0E0E454FD4F24
:10169000998190838F5F8093BB028093DD0281E00C
:1016A00090E0ECCF61E0CE0101960E945109F7CFA6
:1016B00090E080E00895861B970B853B91051CF018
:1016C0008856914008958C342FEF920714F488596E
:1016D0009E4F089585E00E94120684E00E94120643
:1016E00086E00E9412069093620280936102089540
:1016F000FC0101900020E9F73197AF01481B590B1D
:10170000BC018EED92E00C9496078F929F92AF925F
:10171000BF920F931F93CF93DF93CDB7DEB7A197FF
:101720000FB6F894DEBF0FBECDBF19A2423008F449
:101730004AE08E010F5D1F4F842E912CB12CA12CFD
:10174000A50194010E94632DE62FB901CA01EA3078
:10175000F4F4E05DD801EE938D01232B242B252B8F
:1017600079F790E080E0109719F0CD010E94780B96
:10177000A1960FB6F894DEBF0FBECDBFDF91CF911B
:101780001F910F91BF90AF909F908F900895E95C4B
:10179000E1CFCF93DF930E94780BEC0184E491E0DA
:1017A0000E94780B8C0F9D1FDF91CF91089587E4E5
:1017B00091E00E94C90B8091DC01811119C08091D8
:1017C0004402909145028130910559F018F002973A
:1017D00059F0089581E090E090934502809344028F
:1017E000089582E090E0F8CF1092450210924402F2
:1017F000089584E591E00E94C90B81E08093DC01AB
:1018000008958091DC01882381F0809144029091B9
:101810004502892B51F482E090E090934502809339
:1018200044028FE591E00E94C90B1092DC010895FB
:101830000C94780B82E791E00C94180CCF93DF9313
:101840000E941109EC0184E491E00E94780B8C0F56
:101850009D1FDF91CF9108958F929F92AF92BF927B
:10186000CF92DF92EF92FF920F931F93CF93DF936C
:10187000EC011C81123009F483C058F4112309F4DF
:101880001FC1113009F43FC086E894E00E941E0C8D
:101890005FC0133009F484C01430B1F78D81811119
:1018A000C0C00E948807C8A0D9A0EAA0FBA06C19FC
:1018B0007D098E099F09CA88DB88EC88FD886C1534
:1018C0007D058E059F0508F4ACC081E08D830E94E4
:1018D000880768A379A38AA39BA388A599A50196E5
:1018E00099A788A78B81853009F4B5C0863081F52A
:1018F0008A8D9B8D880F991F28A539A52817390730
:1019000008F0BDC025C00E948807C8A0D9A0EAA0E1
:10191000FBA06C197D098E099F09CC8CDD8CEE8CA7
:10192000FF8C6C157D058E059F0590F08B818330B3
:1019300041F030F0873030F484E08C831D8302C0A6
:1019400082E08C830E94880768A379A38AA39BA363
:101950002A8188819C81933009F09AC06E817F81B1
:1019600021118FC0DF91CF911F910F91FF90EF90C8
:10197000DF90CF90BF90AF909F908F900C94D40643
:101980008B81813059F008F47AC0823011F01C82CA
:10199000DFCF81E09D81913009F480E08D83F7CF26
:1019A0000E94880708A119A12AA13BA1601B710B05
:1019B000820B930B0A851B852C853D85061717071F
:1019C0002807390758F10E948807C884D12CF12CC8
:1019D000E12C08A119A12AA13BA14B015C01801AAD
:1019E000910AA20AB30AA5019401898590E0B0E0AA
:1019F000A0E0BC01CD016C197D098E099F090E94F0
:101A0000942D2A853B854C855D850E94312DC20E23
:101A1000D31EE41EF51EDF82CE829ACF1C821D8269
:101A200097CF8D81813009F05DCF0E948807C8A0D3
:101A3000D9A0EAA0FBA06C197D098E099F09CE846C
:101A4000DF84E888F9886C157D058E059F0508F40C
:101A500049CF1D823CCF0E948807CCA0DDA0EEA01C
:101A6000FFA06C197D098E099F09CE88DF88E88C5C
:101A7000F98C6C157D058E059F0508F469CF1D82D4
:101A800086CF2FEF30E05901A61AB70AB5016ACF09
:101A90009D8161E0211104C0911104C060E002C089
:101AA0009111FCCFDF91CF911F910F91FF90EF909B
:101AB000DF90CF90BF90AF909F908F900C943B069B
:101AC000DF91CF911F910F91FF90EF90DF90CF901A
:101AD000BF90AF909F908F9008950F931F93CF93D7
:101AE000DF93EC014E875F87688B798B0A8B1B8BAA
:101AF0002C8B3D8B1C8E1D8E1E8E1F8E0E94880788
:101B000068A379A38AA39BA384E08B839C81911112
:101B100009C08C8381E08D830E94880768A379A324
:101B20008AA39BA3CE01DF91CF911F910F910C94BB
:101B30002C0CFF920F931F93CF93DF9306E914E0D1
:101B4000D0E0C0E0F801F1908F01CE010E941B2D82
:101B5000F81621F06F2DCE010E94232D2196C2335D
:101B6000D10581F786E994E0DF91CF911F910F9124
:101B7000FF900895CF92DF92EF92FF92CF93DF9381
:101B80006C01990FEE08FF08F7FE17C08DE20E9466
:101B90002C09EC0166277727CB016C197D098E098A
:101BA0009F094AE00E94850B8C0F9D1FDF91CF910A
:101BB000FF90EF90DF90CF9008954AE0C701B60103
:101BC000DF91CF91FF90EF90DF90CF900C94850B39
:101BD000CF93DF930E94BA0DEC0184E491E00E9460
:101BE000780B8C0F9D1FDF91CF910895BC0190E081
:101BF00080E04AE00C94850B4F925F926F927F9247
:101C00008F929F92AF92BF92CF92DF92EF92FF920C
:101C10000F931F93CF936B017C01742EAC019B013A
:101C20000E949D2F882399F08AE791E0CF911F9120
:101C30000F91FF90EF90DF90CF90BF90AF909F906B
:101C40008F907F906F905F904F900C94780B46012F
:101C50005701E894B7F82FEF3FEF4FE75FE7C50173
:101C6000B4010E949D2F81110DC02FEF3FEF4FE770
:101C70005FE7C501B4010E94F72B18161CF48EE72C
:101C800091E0D4CF2FEF3FEF4FE75FE4C701B601FC
:101C90000E948C2F18161CF482E891E0C7CF2FEF1A
:101CA0003FEF4FE75FECC701B6010E94F72B87FDBE
:101CB000F3CF20E030E0A901C701B6010E94F72B65
:101CC00010E000E087FF08C08DE20E942C098C0123
:101CD000F7FAF094F7F8F094C0E060E070E080E08C
:101CE0009FE37C1641F020E030E040E251E40E94A6
:101CF000BD2ECF5FF6CFA70196010E94DF2D2B01ED
:101D00003C010E94362F4B015C014AE00E94850B8A
:101D10007C01E00EF11ECC2399F1C501B4010E94B3
:101D2000FC2B9B01AC01C301B2010E94DE2D4B01D3
:101D30005C018EE20E942C09E80EF91EC15000F1F0
:101D400020E030E040E251E4C501B4010E945D2C86
:101D50002B013C010E94362F4B01CB010E94F60D56
:101D6000E80EF91EB40190E080E00E94FC2B9B017C
:101D7000AC01C301B2010E94DE2D4B015C01DECF3C
:101D8000C701CF911F910F91FF90EF90DF90CF90FF
:101D9000BF90AF909F908F907F906F905F904F908B
:101DA0000895CF93DF9342E00E94FC0DEC0184E4A0
:101DB00091E00E94780B8C0F9D1FDF91CF910895C9
:101DC000CF93DF930E94F60DEC0184E491E00E9432
:101DD000780B8C0F9D1FDF91CF910895682F70E0D5
:101DE00090E080E04AE00C94850BCF93DF930E9453
:101DF000EE0EEC0184E491E00E94780B8C0F9D1FA5
:101E0000DF91CF9108954F925F926F927F928F9260
:101E10009F92AF92BF92CF92DF92EF92FF920F9379
:101E20001F93CF93DF9300D000D000D0CDB7DEB7A3
:101E30006091590470915A0480915B0490915C0404
:101E40000E942F2F4B0160915D0470915E04809180
:101E50005F04909160040E942F2F6B0160915504E4
:101E60007091560480915704909158040E942F2F2E
:101E70007A8369839C828B82DE82CD82E091C50465
:101E8000F0E0EE0FFF1F21E030E02C0F3D1FE20FCE
:101E9000F31F008111811093490200934802E091E1
:101EA000C604F0E0EE0FFF1FE20FF31F8081918167
:101EB0009093470280934602E091C704F0E0EE0F52
:101EC000FF1FE20FF31FE080F180F0925302E092D7
:101ED00052028090F1019090F201A090F301B09035
:101EE000F401409154025091550260915602709154
:101EF000570281149104A104B10409F0CBC14093AD
:101F0000F1015093F2016093F3017093F401109387
:101F1000F0010093EF019093EE018093ED01F092B8
:101F2000EC01E092EB0110925A02109259021092C9
:101F300058028AE694E00E9411098091AC049091C5
:101F4000AD040E94F60D86E891E00E94180C809185
:101F5000AE049091AF040E94F60D86E891E00E94D5
:101F6000180C8091B0049091B1040E94E00E83E5BA
:101F700094E00E9411098091B2049091B3040E94F0
:101F8000F60D86E891E00E94180C8091B4049091BF
:101F9000B5040E94F60D86E891E00E94180C80912D
:101FA000B6049091B7040E94E00E8CE394E00E9486
:101FB00011098091B8049091B9040E94F60D86E849
:101FC00091E00E94180C8091BA049091BB040E9489
:101FD000F60D86E891E00E94180C8091BC04909167
:101FE000BD040E94E00E82E294E00E9411098091FB
:101FF000BE049091BF040E94F60D86E891E00E9415
:10200000180C8091C0049091C1040E94F60D86E8DE
:1020100091E00E94180C8091C2049091C3040E9428
:10202000E00E83E194E00E9411096091A404709194
:10203000A5048091A6049091A7040E94FC2B20E0A7
:1020400030E040E251E40E94BD2E0E94D10E84E0B7
:1020500094E00E9411096091A8047091A9048091F4
:10206000AA049091AB040E94FC2B20E030E040E2F7
:1020700051E40E94BD2E0E94D10E86EF93E00E9493
:10208000110980915002909151020E94E80D85EE55
:1020900093E00E94110980919E040E94F50E81ED4B
:1020A00093E00E94110980914E0290914F020E948C
:1020B000E80D8BEB93E00E9411098091C4040E940B
:1020C000F50E84EA93E00E94110980919C040E941D
:1020D000F50E84E793E00E9411098091A00490918D
:1020E000A1040E94E80D8EE593E00E941109809101
:1020F0009D040E94F50E8CE393E00E9411098091EB
:10210000A2049091A3040E94E80D8DE293E00E9446
:10211000110980919604909197040E94BA0D8AE269
:1021200093E00E9411096091960470919704072E24
:10213000000C880B990B0E94FE2B20E030E048EC4D
:1021400052E40E94BD2E42E00E94FC0D82E293E028
:102150000E941E0C83E193E00E9411098091980473
:10216000909199040E94BA0D80E193E00E941109B8
:102170006091980470919904072E000C880B990BBC
:102180000E94FE2B20E030E048EC52E40E94BD2E7D
:1021900042E00E94FC0D88E093E00E941E0C89EF53
:1021A00092E00E94110980919A0490919B040E94F0
:1021B000BA0D86EF92E00E94110960919A04709125
:1021C0009B04072E000C880B990B0E94FE2B20E02D
:1021D00030E048EC52E40E94BD2E42E00E94FC0D2B
:1021E0008EEE92E00E941E0C80ED92E00E9411099A
:1021F0008091C5040E94F50E82EB92E00E941109C5
:102200008091C6040E94F50E84E992E00E941109B3
:102210008091C7040E94F50E88E792E00E941E0C90
:102220008DE692E00E941E0C85E692E00E941E0C54
:1022300089E492E00E941E0C8DE292E00E941E0C46
:1022400084E092E00E941E0C8EED91E00E941E0C34
:1022500086EC91E00E941E0C86E991E00E941E0C23
:1022600087E691E026960FB6F894DEBF0FBECDBF8D
:10227000DF91CF911F910F91FF90EF90DF90CF9062
:10228000BF90AF909F908F907F906F905F904F9096
:102290000C941E0C481959096A097B0944365105EA
:1022A0006105710508F445CE2091EF013091F001F0
:1022B000021B130BC090EB01D090EC016091ED017B
:1022C0007091EE010E945B0BBC01990F880B990B7A
:1022D0000E94FE2B2091E7013091E8014091E90135
:1022E0005091EA010E94DF2D6093E7017093E801AD
:1022F0008093E9019093EA014B015C01E894B7F8FF
:1023000020E030E040E152E4C501B4010E94F72B27
:1023100087FDB1C020E030E040E152E4C501B401E6
:102320000E94BD2E0E942F2F4B01770FAA08BB08D9
:102330008091A4049091A504A091A604B091A70453
:10234000880D991DAA1DBB1D8093A4049093A5041C
:10235000A093A604B093A7044091A8045091A904A7
:102360006091AA047091AB04411551056105710596
:10237000D9F084179507A607B707B0F084E491E079
:102380000E941E0C1092600290E080E00E946D0599
:1023900060E087E00E943B0660E088E00E943B0628
:1023A00060E089E00E943B068091A8049091A90416
:1023B000A091AA04B091AB048A309105A105B105A2
:1023C00078F120915D0230915E022430310541F5B3
:1023D0000A97A109B1094091A4045091A504609104
:1023E000A6047091A704481759076A077B07C0F035
:1023F000809160028823A1F08AE191E00E941E0C86
:1024000085E090E090935E0280935D020E948807D1
:1024100060934A0270934B0280934C0290934D025A
:10242000C501B4010E94FE2B20E030E040E152E4FF
:102430000E945D2C2B013C018090E7019090E80107
:10244000A090E901B090EA0120E030E0A901C501C7
:10245000B4010E948C2F18166CF5A3019201C501DE
:10246000B4010E94DE2D6093E7017093E801809330
:10247000E9019093EA012091A0043091A104121681
:10248000130614F028E230E017FF03C01195019500
:10249000110902171307ACF08091E5019091E60154
:1024A00001969093E6018093E5011092E401109269
:1024B000E30119C0A5019401C301B2010E94DF2DFF
:1024C000D2CF1092E6011092E501359527950217BB
:1024D00013075CF78091E3019091E40101969093DA
:1024E000E4018093E3018091E5019091E601029778
:1024F0000CF456C081E080935A0210926002009161
:102500005D0210915E02C8010397029708F0D1C0E6
:10251000B7016C197D09072E000C880B990B0E94DE
:10252000FE2B20E030E04AE754E40E945D2C20E0DE
:1025300030E048EC52E40E94BD2E4B015C01E0907B
:10254000A204F090A3041E141F041CF084E1E82EE2
:10255000F12C20E030E0A901C501B4010E948C2FCC
:10256000181624F0B7FAB094B7F8B094B701FF0C7E
:10257000880B990B0E94FE2BA50194010E94F72B5A
:102580001816C4F08091E1019091E20101969093B8
:10259000E2018093E1011092E0011092DF011EC080
:1025A0008091E3019091E40105970CF4A8CF10927B
:1025B0005A02A5CF80915202909153020A964597F4
:1025C000F8F48091DF019091E00101969093E00191
:1025D0008093DF011092E2011092E10103301105B6
:1025E000A1F48091DD019091DE018E3F3FE79307DA
:1025F0002CF401969093DE018093DD0120E00BC066
:102600001092E2011092E101C6CF86E00E9412060C
:1026100021E0892B99F78091E1019091E2010297E5
:1026200084F1211105C081E080935902109260026B
:1026300080914802909149029093F0018093EF01BC
:1026400080914602909147029093EE018093ED01B4
:1026500080915202909153029093EC018093EB0190
:102660008091540290915502A0915602B091570268
:102670008093F1019093F201A093F301B093F401E0
:1026800058CC8091DF019091E001059734F0211141
:10269000CFCF81E080935802C9CF8091DD01909126
:1026A000DE01C2970CF0BDCF109259021092580271
:1026B000BFCF8091DD019091DE01181619062CF430
:1026C00001979093DE018093DD011092E201109258
:1026D000E1011092E0011092DF01E6CF2F923F92CC
:1026E0004F925F926F927F928F929F92AF92BF9222
:1026F000CF92DF92EF92FF92CF93DF93CDB7DEB709
:1027000028970FB6F894DEBF0FBECDBF80910504A9
:102710009091060421E02093BA0228E62093DC027F
:102720001092BB021092DD02DC01ED91FC91019050
:10273000F081E02D6BE3099580E00E94B7090E94CB
:1027400031076B017C018091B402811165C081E089
:102750008093B4028093B3029FEF9093B2021092E1
:10276000B1029DE09093B00280938F0280918F021E
:10277000806D80938F0280918E02813009F09FC31B
:1027800010928E020E9431076B017C0180918F02B2
:102790008093BB008091B6029091B702A091B802DD
:1027A000B091B902892B8A2B8B2BA1F00E943107A3
:1027B0008090B6029090B702A090B802B090B90293
:1027C0006C197D098E099F0986169706A806B90619
:1027D00008F443C08091BC0083FDD8CF85EC809382
:1027E000BC000E9431076B017C018091B4028130F2
:1027F00009F467C38091B1028E3008F084C38091E0
:10280000B102E0E9F2E0AEE6B2E090E0981751F1F3
:1028100021912D939F5FFACF8091B6029091B702DC
:10282000A091B802B091B902892B8A2B8B2B09F4A5
:102830008ACF0E9431078090B6029090B702A09094
:10284000B802B090B9026C197D098E099F098616ED
:102850009706A806B90608F076CF8091B5020E94C7
:10286000960980E010926D0280936C0280910504BD
:1028700090910604DC01ED91FC910284F385E02D3A
:102880000995F82E8091050490910604DC01ED91E4
:10289000FC910284F385E02D099520E0822B9F298D
:1028A0009093080480930704809105049091060496
:1028B000DC01ED91FC910284F385E02D0995F82E61
:1028C0008091050490910604DC01ED91FC91028455
:1028D000F385E02D099520E0822B9F2990930A042F
:1028E000809309048091050490910604DC01ED9128
:1028F000FC910284F385E02D0995F82E8091050462
:1029000090910604DC01ED91FC910284F385E02DA9
:10291000099520E0822B9F2990930C0480930B044F
:102920008091050490910604DC01ED91FC910284F4
:10293000F385E02D0995F82E809105049091060409
:10294000DC01ED91FC910284F385E02D099520E0F6
:10295000822B9F2990930E0480930D04809105048F
:1029600090910604DC01ED91FC910284F385E02D49
:102970000995F82E8091050490910604DC01ED91F3
:10298000FC910284F385E02D099520E0822B9F299C
:102990009093100480930F04809105049091060495
:1029A000DC01ED91FC910284F385E02D0995F82E70
:1029B0008091050490910604DC01ED91FC91028464
:1029C000F385E02D099520E0822B9F299093120436
:1029D000809311048091050490910604DC01ED912F
:1029E000FC910284F385E02D0995F82E8091050471
:1029F00090910604DC01ED91FC910284F385E02DB9
:102A00000995612C7F2C682A792A709214046092AF
:102A1000130460910D0470910E04072E000C880BB6
:102A2000990B0E94FE2B20E030EF41E456E40E9417
:102A3000DF2D20E030E04AEA53E40E94BD2E60938F
:102A400021047093220480932304909324046091C2
:102A5000070470910804072E000C880B990B0E9444
:102A6000FE2B20E030E040E858E30E945D2C4B0153
:102A70005C018092250490922604A0922704B092D3
:102A800028046091090470910A04072E000C880B39
:102A9000990B0E94FE2B20E030E040E858E30E94B2
:102AA0005D2C6B017C01C0922904D0922A04E09233
:102AB0002B04F0922C0460910B0470910C04072EEF
:102AC000000C880B990B0E94FE2B20E030E040E8C0
:102AD00058E30E945D2C1B012C0120922D043092A2
:102AE0002E0440922F045092300420E030E0A901DF
:102AF000C501B4010E948C2FA501940118160CF099
:102B00005058C201B1010E94DF2D9B01AC01C701E9
:102B1000B6010E945E2E20E030E044EB53E40E94B8
:102B20005D2C20E030E040E05FE30E945D2C2BED67
:102B30003FE049E450E40E94BD2E60934904709345
:102B40004A0480934B0490934C0420E030E0A901A8
:102B5000C701B6010E948C2F181624F0F7FAF094E2
:102B6000F7F8F094A7019601C201B1010E94DF2D90
:102B70009B01AC01C501B4010E945E2E20E030E053
:102B800044EB53E40E945D2C20E030E040E05FEB3A
:102B90000E945D2C2BED3FE049E450E40E94BD2EE5
:102BA00060934D0470934E0480934F0490935004AF
:102BB0006091110470911204072E000C880B990B80
:102BC0000E94FE2B20E030E043E852E40E94BD2E3C
:102BD0006B017C0160910F0470911004072E000CB2
:102BE000880B990B0E94FE2B20E030E043E852E472
:102BF0000E94BD2E209115043091160440911704B7
:102C0000509118040E94DE2D6093310470933204B9
:102C100080933304909334042091190430911A0462
:102C200040911B0450911C04C701B6010E94DE2D87
:102C3000609335047093360480933704909338047E
:102C4000B301770C880B990B0E94FE2B20E030E03B
:102C500043E852E40E94BD2E20911D0430911E04D1
:102C600040911F04509120040E94DE2D609339048E
:102C700070933A0480933B0490933C040E9488072D
:102C8000C0906504D0906604E0906704F0906804FA
:102C90006C197D098E099F090E94FC2B2FE632E1F9
:102CA00043E85AE30E945D2C6B017C01C0926104F1
:102CB000D0926204E0926304F092640420913104A3
:102CC0003091320440913304509134040E945D2CC1
:102CD0002B013C01AC019B0160913D0470913E04CD
:102CE00080913F04909140040E94DF2D60933D0449
:102CF00070933E0480933F049093400420913504E8
:102D0000309136044091370450913804C701B60120
:102D10000E945D2C4B015C01AC019B016091410460
:102D20007091420480914304909144040E94DF2DED
:102D3000609341047093420480934304909344044D
:102D40002091390430913A0440913B0450913C0465
:102D5000C701B6010E945D2C2091450430914604C4
:102D600040914704509148040E94DF2D6D837E837B
:102D70008F8398876093450470934604809347043B
:102D800090934804C0906D04D0906E04E0906F045E
:102D9000F09070048091690490916A04A0916B0492
:102DA000B0916C0489839A83AB83BC8320915504D2
:102DB000309156044091570450915804C301B20118
:102DC0000E94DF2DA70196010E945D2C2B013C0182
:102DD0002091490430914A0440914B0450914C0495
:102DE00069817A818B819C810E945D2C9B01AC0161
:102DF000C301B2010E94DF2D609355047093560405
:102E000080935704909358042091590430915A04A8
:102E100040915B0450915C04C501B4010E94DF2D18
:102E2000A70196010E945D2C6B017C0120914D044D
:102E300030914E0440914F045091500469817A8141
:102E40008B819C810E945D2C9B01AC01C701B60166
:102E50000E94DF2D6093590470935A0480935B04A1
:102E600090935C048D819E81AF81B88580935D04D1
:102E700090935E04A0935F04B09360040E9488075F
:102E8000609365047093660480936704909368046C
:102E900028960FB6F894DEBF0FBECDBFDF91CF915D
:102EA000FF90EF90DF90CF90BF90AF909F908F906A
:102EB0007F906F905F904F903F902F90089585EE98
:102EC0008ECC8091B6029091B702A091B802B091D9
:102ED000B902892B8A2B8B2B09F487CC0E943107EE
:102EE0008090B6029090B702A090B802B090B9025C
:102EF0006C197D098E099F0986169706A806B906E2
:102F000008F073CCAACC8EE07CCC2F923F924F92EB
:102F10005F926F927F928F929F92AF92BF92CF9269
:102F2000DF92EF92FF920F931F93CF93DF93CDB772
:102F3000DEB760970FB6F894DEBF0FBECDBF89EE47
:102F400090E00E941E0C25E030E03A8329830E9425
:102F50006E1364E170E080E090E00E945607898182
:102F60009A8101979A838983892B89F76091550407
:102F70007091560480915704909158040E942F2F0D
:102F8000788B6F876091590470915A0480915B042B
:102F900090915C040E942F2F8B0160915D047091D1
:102FA0005E0480915F04909160040E942F2F1B01AA
:102FB00028EC30E03A832983C12CD12C76014601DC
:102FC0005701260137010E946E13609155047091DC
:102FD000560480915704909158040E942F2F6B83C0
:102FE0007C838D839E836091590470915A048091F3
:102FF0005B0490915C040E942F2F6F8378878987F0
:103000009A8760915D0470915E0480915F04909155
:1030100060040E942F2F6B877C878D879E876F852A
:1030200078898B819C810E945B0B988B8F87B8017C
:103030008F8198850E945B0B8C01B1018B859C85EB
:103040000E945B0B1C012F853889B901330F880B57
:10305000990B0E94FE2B20E030E04AE754E40E94E6
:103060005D2C20E030E040E251E40E94BD2E9B0147
:10307000AC01C301B2010E94DF2D2B013C01B8015C
:10308000110F880B990B0E94FE2B20E030E04AE7DD
:1030900054E40E945D2C20E030E040E251E40E94C4
:1030A000BD2E9B01AC01C501B4010E94DF2D4B0177
:1030B0005C01B101330C880B990B0E94FE2B20E0C0
:1030C00030E04AE754E40E945D2C20E030E040E22A
:1030D00051E40E94BD2E9B01AC01C701B6010E94C4
:1030E000DF2D6B017C016AE070E080E090E00E94DF
:1030F000560789819A8101979A8389832B813C8124
:10310000388B2F870F8118852B843C84892B09F0FD
:103110005ACF20E030E048E453E4C301B2010E94FA
:10312000BD2E2B013C0120E030E048E453E4C50112
:10313000B4010E94BD2E4B015C0120E030E048E468
:1031400053E4C701B6010E94BD2E6B017C01409281
:10315000150450921604609217047092180480921D
:10316000190490921A04A0921B04B0921C04C092FD
:103170001D04D0921E04E0921F04F092200420E06F
:1031800030E048EC52E4C301B2010E945D2C0E9481
:103190002F2F709397046093960420E030E048EC62
:1031A00052E4C501B4010E945D2C0E942F2F709340
:1031B00099046093980420E030E048EC52E4C701A1
:1031C000B6010E945D2C0E942F2F70939B04609388
:1031D0009A040E94990D81EC90E00E94110942E04E
:1031E000C301B2010E94FC0D8FEB90E00E94110917
:1031F00042E0C501B4010E94FC0D8DEB90E00E94FD
:103200001109C701B6010E94D10E8AE990E00E941F
:10321000110980919604909197040E94BA0D88E953
:1032200090E00E94110980919804909199040E9465
:10323000BA0D86E990E00E94110980919A0490915C
:103240009B0460960FB6F894DEBF0FBECDBFDF9132
:10325000CF911F910F91FF90EF90DF90CF90BF9093
:10326000AF909F908F907F906F905F904F903F9026
:103270002F900C94E80D85ED8093BC008091B602F0
:103280009091B702A091B802B091B9020796A11D22
:10329000B11D23E0B695A795979587952A95D1F707
:1032A0002091BC0024FD03C01092B4020895409107
:1032B000B6025091B7026091B8027091B902452BE5
:1032C000462B472B69F30097A105B10541F02AE28F
:1032D0002A95F1F700C00197A109B109E1CF8091CA
:1032E000B5020C9496091F920F920FB60F921124FB
:1032F0002F933F938F939F93AF93BF9380916402DB
:1033000090916502A0916602B091670230916302CC
:1033100023E0230F2D3758F50196A11DB11D2093F1
:1033200063028093640290936502A0936602B09357
:1033300067028091680290916902A0916A02B0913F
:103340006B020196A11DB11D8093680290936902E2
:10335000A0936A02B0936B02BF91AF919F918F913E
:103360003F912F910F900FBE0F901F90189526E858
:10337000230F0296A11DB11DD2CF1F920F920FB63F
:103380000F9211242F933F934F935F936F937F93EB
:103390008F939F93AF93BF93EF93FF938EED92E044
:1033A0000E94A208FF91EF91BF91AF919F918F91E1
:1033B0007F916F915F914F913F912F910F900FBE31
:1033C0000F901F9018951F920F920FB60F92112415
:1033D0002F938F939F93EF93FF93E091EE02F091E1
:1033E000EF028081E091F402F091F50282FD1BC0B2
:1033F00090818091F7028F5F8F732091F80282177E
:1034000041F0E091F702F0E0E252FD4F958F80939A
:10341000F702FF91EF919F918F912F910F900FBE27
:103420000F901F9018958081F4CF1F920F920FB6C6
:103430000F9211242F933F934F935F936F937F933A
:103440008F939F93AF93BF93EF93FF938091B900B6
:10345000887F803609F44AC0F0F5883209F4A7C0A5
:1034600018F5803109F49BC0B8F4882309F4F9C039
:10347000883009F494C0FF91EF91BF91AF919F9173
:103480008F917F916F915F914F913F912F910F900D
:103490000FBE0F901F901895883109F488C08032B4
:1034A00051F78093B20214C0803409F49DC040F4F7
:1034B0008033B9F38833F9F68093B20285ECB0C05B
:1034C000803509F485C0883509F496C0883499F6AA
:1034D0000E943B19D0CF883909F48CC038F5883761
:1034E00029F050F4883611F0803729F683E0809374
:1034F000B4021092390257C0883809F47BC0803971
:1035000019F0803809F0B7CF80913902803208F085
:1035100071C0E091390281E08E0F80933902809171
:10352000BB00F0E0E75EFD4F80833DC0803B39F09B
:10353000E0F4803A09F479C0883A09F09CCF84E03D
:103540008093B4021092180210921702E0913C028C
:10355000F0913D0209958091170281110FC081E021
:10356000809317021092F70109C0803C09F4A6CF9E
:10357000883C09F4A3CF883B09F07DCFE091180285
:1035800081E08E0F80931802F0E0E950FE4F8081B9
:103590008093BB00909118028091170229C08091FE
:1035A0008F028093BB0085EC8093BC0064CF909128
:1035B000B1028091B002981758F5E091B10281E014
:1035C0008E0F8093B102F0E0E057FD4F8081E9CF8C
:1035D000E091B10281E08E0F8093B1028091BB0037
:1035E000F0E0E057FD4F80839091B1028091B002EE
:1035F0009817C8F285E8D8CFE091B10281E08E0F2C
:103600008093B1028091BB00F0E0E057FD4F8083D2
:103610008091B30281115CCF81E080938E0284EAB5
:103620008093BC001092B40226CF85EC8093BC003E
:103630001092B40280913902803230F4E091390264
:10364000F0E0E75EFD4F10826091390270E0E0919A
:103650003A02F0913B0289E192E009951092390219
:103660000ACF1092B20234CF1F920F920FB60F9270
:1036700011242F933F934F935F936F937F938F9377
:103680009F93AF93BF93CF93DF93EF93FF9380917B
:10369000F501C0919504D0E087FF24C01092850009
:1036A000109284008091F5018F5F8093F5018091E5
:1036B000F501082E000C990B8C179D0724F48091BE
:1036C000F5018C30C4F180918400909185000496BE
:1036D00080349C4908F47AC08091840090918500E0
:1036E000049676C08091F501082E000C990B8C177A
:1036F0009D07C4F6E091F5018E2FEE0F990BFC01AA
:10370000EE0FFF1FE80FF91FEF58FB4F808186FF78
:10371000C9CFE091F5018E2FEE0F990BFC01EE0F52
:10372000FF1FE80FF91FEF58FB4F808160E08F7398
:103730000E943B06B7CF2091840030918500E09134
:10374000F5018E2FEE0F990BFC01EE0FFF1FE80F16
:10375000F91FEF58FB4F81819281820F931F909345
:10376000890080938800E091F5018E2FEE0F990B70
:10377000FC01EE0FFF1FE80FF91FEF58FB4F808190
:1037800086FF11C0E091F5018E2FEE0F990BFC0121
:10379000EE0FFF1FE80FF91FEF58FB4F808161E02C
:1037A0008F730E943B06FF91EF91DF91CF91BF9104
:1037B000AF919F918F917F916F915F914F913F91C9
:1037C0002F910F900FBE0F901F90189580E49CE9E9
:1037D00090938900809388008FEF8093F501E3CF69
:1037E0001092E1021092E00288EE93E0A0E0B0E0D7
:1037F0008093E2029093E302A093E402B093E50287
:1038000024E231E03093DF022093DE0225EC30E049
:103810003093EB022093EA0224EC30E03093ED0287
:103820002093EC0220EC30E03093EF022093EE0284
:1038300021EC30E03093F1022093F00222EC30E0F2
:103840003093F3022093F20226EC30E03093F5023D
:103850002093F4021092F7021092F8021092F902EB
:103860001092FA021092FC031092FB038093FD0366
:103870009093FE03A093FF03B093000486E391E0CE
:103880009093FA038093F90369E070E08FEC93E082
:103890000E94A50668E070E085EA93E00E94A50614
:1038A00067E070E08BE793E00E94A50689EF93E064
:1038B00090930604809305048AE097EDA3EABCE3A5
:1038C0008093690490936A04A0936B04B0936C0492
:1038D00088E491EEAAE7BFE380936D0490936E04B1
:1038E000A0936F04B0937004809195048C3008F01D
:1038F000C7C091E0980F909395048093C80490E01E
:10390000FC01EE0FFF1FE80FF91FEF58FB4F88EB8C
:103910009BE09283818382E390E09093CE04809336
:10392000CD0480E991E09093D0048093CF0480E2AD
:1039300093E09093D2048093D10488EE93E0909327
:10394000D4048093D3041092D6041092D50410921C
:10395000D8041092D7041092DA041092D90410926D
:10396000DC041092DB041092DE041092DD0410924D
:10397000E0041092DF041092E2041092E10410922D
:10398000E4041092E3041092E6041092E50410920D
:10399000E8041092E7041092EA041092E9041092ED
:1039A000EC041092EB041092EE041092ED041092CD
:1039B000F0041092EF041092F2041092F1041092AD
:1039C000F4041092F3041092F6041092F50410928D
:1039D000F8041092F7041092FA041092F90410926D
:1039E000FC041092FB041092FE041092FD0410924D
:1039F00000051092FF04109202051092010510922A
:103A00000405109203051092050510920605109208
:103A10000705109208051092090510920A051092E8
:103A20000B0510920C0510920D0510920E051092C8
:103A30000F051092100510921105109212051092A8
:103A40001305109215051092140581E090E09093F3
:103A500017058093160510921905109218051092FB
:103A60001A0510921B0510921C0510921D058AE084
:103A700090E09093CC048093CB0462E00C946906B0
:103A80008FEF8093C80447CFCF93DF93CDB7DEB7D6
:103A900028970FB6F894DEBF0FBECDBF789484B5DB
:103AA000826084BD84B5816084BD85B5826085BD3A
:103AB00085B5816085BD80916E00816080936E00C8
:103AC00010928100809181008260809381008091BA
:103AD000810081608093810080918000816080936B
:103AE00080008091B10084608093B1008091B0002B
:103AF00081608093B00080917A00846080937A0026
:103B000080917A00826080937A0080917A0081604F
:103B100080937A0080917A00806880937A00109276
:103B2000C100E091EE02F091EF0282E08083E0912B
:103B3000EA02F091EB021082E091EC02F091ED02CA
:103B400087E680831092F602E091F202F091F30290
:103B500086E08083E091F002F091F1028081806143
:103B60008083E091F002F091F1028081886080838F
:103B7000E091F002F091F102808180688083E09111
:103B8000F002F091F10280818F7D808389E891E0DD
:103B90000E94180C8091C8048C3008F053C061E07A
:103BA00083E00E9469068091C804282F30E0F90163
:103BB000EE0FFF1FE20FF31FEF58FB4F9081907C39
:103BC000936090839EE89093C90494E69093CA040E
:103BD0002CE0622F0E94A42D829FB001112430E0BE
:103BE00020E0AB01420F531FFA01EE0FFF1FE40F5D
:103BF000F51FEF58FB4F908196FD16C02F5F3F4F8A
:103C00002C30310571F781110FC01092800082E0D5
:103C1000809381001092850010928400B19A809167
:103C20006F00826080936F00E091C8048E2F90E057
:103C3000FC01EE0FFF1FE80FF91FEF58FB4F8081CB
:103C40008064808390E080E00E946D0516E9E12E9B
:103C500014E0F12E10E000E0C8010E941B2DF701D6
:103C600081937F010F5F1F4F02331105A9F78091E8
:103C7000B0049091B10410E0853F914008F47EC0FB
:103C800081E090E090939704809396049093990438
:103C90008093980490939B0480939A0480939C044F
:103CA00080939D0480939E0480939F0428E230E0DB
:103CB0003093A1042093A00424E130E03093A304C6
:103CC0002093A2041092A4041092A5041092A604BA
:103CD0001092A7041092A8041092A9041092AA04AA
:103CE0001092AB0428E730E03093AD042093AC048D
:103CF0002CE830E03093AF042093AE0424EB30E0A6
:103D00003093B1042093B00420E43CE93093B30431
:103D10002093B2043093B5042093B4043093B704D5
:103D20002093B60424EF31E03093B9042093B80413
:103D30003093BB042093BA043093BD042093BC0499
:103D400028E833E13093BF042093BE043093C104CC
:103D50002093C0043093C3042093C20492E0909354
:103D6000C4041092C5048093C6049093C7040E94B3
:103D7000990D86E991E00E94180C11E08091B2043F
:103D80009091B304B0E0A0E08093100190931101F2
:103D9000A0931201B09313018091B8049091B904DB
:103DA000B0E0A0E08093040190930501A093060188
:103DB000B09307018091BE049091BF04B0E0A0E0F1
:103DC0008093080190930901A0930A01B0930B011D
:103DD0008CEA91E00E94180C87ED9BE09093DE0442
:103DE0008093DD048AE19CE09093E4048093E304F3
:103DF00080911605909117058230910514F482E0A8
:103E000090E0909317058093160589EF9BE09093BF
:103E1000F0048093EF0481E09CE09093F60480939B
:103E2000F50462E08AE00E94690662E084E00E9494
:103E3000690662E085E00E94690662E086E00E9411
:103E4000690661E08DE00E94690610926D02109291
:103E50006C021092BB021092DD020E94780984E984
:103E600097E090933D0280933C0285E997E0909320
:103E70003B0280933A0260E089E10E94A70A60E079
:103E80008AE10E94A70A68E08BE10E94A70A60E02D
:103E90008CE10E94A70A61E08BE60E94A70A0E94BB
:103EA0006E1310923D0410923E0410923F04109243
:103EB0004004109241041092420410924304109264
:103EC00044048091490490914A04A0914B04B0911C
:103ED0004C048093550490935604A0935704B093D8
:103EE000580480914D0490914E04A0914F04B091DC
:103EF00050048093590490935A04A0935B04B093A8
:103F00005C040E9488076093650470936604809344
:103F100067049093680460919A0470919B04072E43
:103F2000000C880B990B0E94FE2B20E030E048EC3F
:103F300052E40E94BD2E6B017C0160919804709147
:103F40009904072E000C880B990B0E94FE2B20E091
:103F500030E048EC52E40E94BD2E4B015C016091C0
:103F6000960470919704072E000C880B990B0E9401
:103F7000FE2B20E030E048EC52E40E94BD2E60931E
:103F8000150470931604809317049093180480927C
:103F9000190490921A04A0921B04B0921C04C092BF
:103FA0001D04D0921E04E0921F04F09220041123FD
:103FB00031F084ED94E00E941E0C0E9485170E944F
:103FC0006A0B88E893E1A0E0B0E0809389039093C6
:103FD0008A03A0938B03B0938C0388EE93E0A0E058
:103FE000B0E080938D0390938E03A0938F03B093E2
:103FF00090031092970310929803109299031092D5
:104000009A030E94880760939B0370939C0380939C
:104010009D0390939E038AE090E090939603809393
:10402000950386E080937E0380917F03811116C003
:1040300084E080937F0381E0809380030E9488075F
:1040400060939B0370939C0380939D0390939E03C6
:1040500081E090E09093A4038093A3038BE793E027
:104060000E942C0C68EE73E080E090E00E945607FE
:1040700088E893E1A0E0B0E08093B3039093B403A9
:10408000A093B503B093B60388EE93E0A0E0B0E050
:104090008093B7039093B803A093B903B093BA0386
:1040A0001092C1031092C2031092C3031092C40372
:1040B0000E9488076093C5037093C6038093C7036B
:1040C0009093C8038AE090E09093C0038093BF036D
:1040D00086E08093A8038091A903811116C084E033
:1040E0008093A90381E08093AA030E9488076093CC
:1040F000C5037093C6038093C7039093C80381E000
:1041000090E09093CE038093CD0385EA93E00E94E4
:104110002C0C68EE73E080E090E00E94560788E87F
:1041200093E1A0E0B0E08093B3039093B403A09335
:10413000B503B093B60388EE93E0A0E0B0E08093BF
:10414000B7039093B803A093B903B093BA03109246
:10415000C1031092C2031092C3031092C4030E94C1
:1041600088076093C5037093C6038093C703909339
:10417000C8038AE090E09093C0038093BF0386E079
:104180008093A8038091A903811116C084E08093D5
:10419000A90381E08093AA030E9488076093C50366
:1041A0007093C6038093C7039093C80381E090E0A7
:1041B0009093CE038093CD0385EA93E00E942C0C6C
:1041C00004EF11E020E030E044EF51E060E070E007
:1041D0008FEC93E00E946D0D89EB91E00E94180C2A
:1041E00084EC91E00E94180C83E994E00E941E0C7C
:1041F0008091610290916202892B09F4ADC00E9406
:104200006E136091590470915A0480915B049091EF
:104210005C040E942F2F4B0160915D0470915E043D
:1042200080915F04909160040E942F2F6B01609138
:1042300055047091560480915704909158040E943F
:104240002F2F7A8369839C828B82DE82CD82E091DC
:10425000C504F0E0EE0FFF1F88248394912C8C0E90
:104260009D1EE80DF91DE080F180E0924802F09279
:104270004902E091C604F0E0EE0FFF1FE80DF91DC2
:10428000808191819093470280934602E091C70418
:10429000F0E0EE0FFF1FE80DF91D808191819093F2
:1042A000530280935202C70168E671E00E94B02D6C
:1042B00097FF02C088599E4F6AE070E00E94B02DBF
:1042C000FB01EE0FFF1FEF5FFA4F659174911091A4
:1042D0009C04645F7140072E000C880B990B0E94B0
:1042E000FE2B20E030E04AEF53E40E94BD2E4B014C
:1042F0005C01612F70E090E080E00E94FC2B9B014C
:10430000AC01C501B4010E945D2C0E942F2F719554
:1043100061957109812F90E0861797070CF4BC0115
:10432000919581959109861797070CF4CB0190938D
:104330005102809350028701F7FE03C01195019549
:1043400011090530110524F060919E04611185C0AA
:1043500010924F0210924E028FEC93E00E942C0CB0
:1043600085EA93E00E942C0C8BE793E00E942C0CD2
:104370000E946A0B8091CB049091CC0497FD1AC1E6
:104380000E9412066C01E090D504F090D60411E072
:104390008E159F0509F010E00E948807AB01BC0153
:1043A00040930C0550930D0560930E0570930F0517
:1043B0008091CD049091CE04009721F0CE14DF04BB
:1043C00019F497FD1093060520910705121383C079
:1043D000C0900805D0900905E0900A05F0900B0503
:1043E0004A015B018C189D08AE08BF087501640185
:1043F00097FF03C0919581959109092E000CAA0B96
:10440000BB0BC816D906EA06FB0610F0109306058A
:10441000109106058091100590911105A09112054B
:10442000B09113056A017B01C81AD90AEA0AFB0A8E
:1044300080910305909104058230910509F467C1CC
:104440000CF054C0009709F46EC0019709F435C10F
:104450001092040510920305ADC070E090E080E07A
:104460000E94FC2B6B017C01B801110F880B990B8A
:104470000E94FE2B20E030E044EB52E40E94BD2E6F
:104480009601A7010E945D2C5B018C0120E030E0C9
:10449000A9010E94F72B87FD19C09501A801B6015B
:1044A000C7010E94F72B87FD02C06501780120E05B
:1044B00030E040E05FE3B601C7010E94DF2D0E94BB
:1044C0002F2F70934F0260934E0246CFC12CD12CF8
:1044D000E12CF12CECCF4093080550930905609333
:1044E0000A0570930B051093070592CF863091054E
:1044F00009F480C18730910509F4BCC1039709F024
:10450000A7CF112309F40FC181E090E09093040537
:104510008093030540931005509311056093120595
:104520007093130547C080910505811115C08091D6
:10453000D3049091D404B0E0A0E08C159D05AE05A5
:10454000BF0550F4E0910105F0910205309721F08C
:1045500081E0809305050995112361F181E090E0E8
:10456000909304058093030580910C0590910D05AF
:10457000A0910E05B0910F05809310059093110541
:10458000A0931205B093130510921505109214050F
:10459000E091D704F091D804309709F00995E091A3
:1045A000D904F091DA04309729F08091DB049091DE
:1045B000DC0409958091440290914502009709F42A
:1045C0006CC1019709F46CC180915F028823B1F03E
:1045D0008EED92E00E948208181619060CF06AC14E
:1045E0008EED92E00E94D2078F7D8135910581F793
:1045F00010925F028DE895E00E941E0C809160028F
:10460000882309F440C30E9488078B019C01009312
:104610005402109355022093560230935702809112
:104620005D0290915E0240914A0250914B0260916E
:104630004C0270914D0268017901C41AD50AE60A4C
:10464000F70AFC01EE0FFF1FEE0FFF1FE050FF4FB8
:1046500040815181628173814C155D056E057F0536
:1046600088F4019668E070E00E94B02D90935E029D
:1046700080935D0200934A0210934B0220934C02F8
:1046800030934D0200915D0210915E0268EE73E07E
:1046900080E090E00E9456070830110508F09AC2A9
:1046A000F801EB5AFC4D0C94C42DD024F824272596
:1046B00068259725BD255525D02482E090E011235B
:1046C00009F424CF8091D1049091D204B0E0A0E00D
:1046D0008C159D05AE05BF0508F06CCFE091EF0489
:1046E000F091F004309709F00995E091F104F09110
:1046F000F204309729F08091F3049091F404099525
:1047000086E090E0909304058093030553CF809159
:104710001405909115050196909315058093140545
:1047200083E090E0EFCF80911405909115054091C2
:10473000CF045091D00470E060E0C416D506E606C0
:10474000F70640F42091160530911705821793075C
:1047500009F030CF8130910531F5E091DD04F09121
:10476000DE04309709F00995E091DF04F091E00450
:104770008091E1049091E204309741F51092040594
:104780001092030510921505109214050E948807D7
:104790006093100570931105809312059093130593
:1047A0001092050507CF029799F4E091E304F09188
:1047B000E404309709F00995E091E504F091E604EE
:1047C0008091E7049091E8043097C1F20995D6CF23
:1047D000E091E904F091EA04309709F00995E0913D
:1047E000EB04F091EC048091ED049091EE0430978D
:1047F00069F7C4CF111103C087E090E083CF8091A7
:104800001A0590911B05A0911C05B0911D05481B30
:10481000590B6A0B7B0B8091180590911905B0E03C
:10482000A0E0481759076A077B0708F4C3CEE09158
:10483000FB04F091FC04309709F00995E091FD0428
:10484000F091FE04309729F08091FF0490910005CB
:10485000099580910C0590910D05A0910E05B091E0
:104860000F0580931A0590931B05A0931C05B09328
:104870001D05A0CEE091F504F091F604309709F003
:104880000995E091F704F091F804309709F476CF98
:104890008091F9049091FA0499CF1092600294CE1D
:1048A00081E08093600282E090E0909345028093E3
:1048B00044028ACE80905B0290905C02A0904802F5
:1048C000B0904902609046027090470240905202B8
:1048D0005090530220904E0230904F0287E00E9489
:1048E00012068C0188E00E9412067C0189E00E9479
:1048F00012066C018AE00E94120698878F8384E872
:1049000095E00E941109C4010E94BA0D8CE795E060
:104910000E941109C5010E94BA0D85E795E00E9429
:104920001109C3010E94BA0D8FE695E00E9411099A
:10493000C2010E94BA0D87E695E00E941109C101EB
:104940000E94BA0D8FE595E00E941109C6010E94F0
:10495000BA0D8CE595E00E941109C7010E94BA0DBD
:1049600089E595E00E941109C8010E94BA0D83E50E
:1049700095E00E94110981E090E0AF80B884AB28F7
:1049800011F090E080E00E94BA0D8BE495E00E9467
:10499000110980915D0290915E020E94E80D2ECE79
:1049A00008EE13E020E030E04AEF50E060E070E015
:1049B0008FEC93E00E946D0D1092C1031092C20320
:1049C0001092C3031092C4031092A80312E0109334
:1049D000A90385EA93E00E942C0C10929703109291
:1049E00098031092990310929A0310927E039CC030
:1049F0001092EB031092EC031092ED031092EE0371
:104A00001092D20392E0F92EF092D3038FEC93E050
:104A10000E942C0C08EE13E020E030E04AEF50E05A
:104A200060E070E085EA93E00E946D0D10929703BC
:104A3000109298031092990310929A0310927E0399
:104A4000F0927F038BE793E00E942C0C2EC0109213
:104A5000EB031092EC031092ED031092EE03109210
:104A6000D20312E01093D3038FEC93E00E942C0C3E
:104A70001092C1031092C2031092C3031092C40398
:104A800081E08093A8031093A90385EA93E00E9434
:104A90002C0C04E610E020E030E04AEF50E060E04B
:104AA00070E08BE793E00E946D0DE0915D02F09164
:104AB0005E02E730F10508F046C1EF59FA4D0C945B
:104AC000C42D0726812686269926AF26C226C5260E
:104AD0001092EB031092EC031092ED031092EE0390
:104AE0001092D20312E01093D3038FEC93E00E9454
:104AF0002C0C1092C1031092C2031092C3031092A7
:104B0000C4031092A8031093A90385EA93E00E94BE
:104B10002C0C109297031092980310929903109204
:104B20009A0381E080937E0310937F038BCF1092D2
:104B3000EB031092EC031092ED031092EE0310922F
:104B4000D20382E08093D3038FEC93E00E942C0C7D
:104B500004EF11E020E030E044EF51E060E070E06D
:104B600085EA93E00E946D0D04EF11E020E030E053
:104B700044EF51E060E070E094CF1092EB031092AC
:104B8000EC031092ED031092EE0301E00093D203C8
:104B900012E01093D3038FEC93E00E942C0C109240
:104BA000C1031092C2031092C3031092C403009376
:104BB000A8031093A90385EA93E00E942C0C10929D
:104BC0009703109298031092990310929A030093FE
:104BD0007E03AACF1092EB031092EC031092ED0328
:104BE0001092EE0381E08093D20312E01093D3037E
:104BF0008FEC93E00E942C0C1092C1031092C20320
:104C00001092C3031092C4031092A803E0CE89E16E
:104C100090E090935C0280935B0210925A02109293
:104C200059021092580280915B0290915C02092E09
:104C3000000CAA0BBB0B4091500250915102052E63
:104C4000000C660B770B840F951FA61FB71F4091B2
:104C50004E0250914F02052E000C660B770B840F0D
:104C6000951FA61FB71F853B9105A105B10524F02F
:104C700084EB90E0A0E0B0E0B7FF03C080E090E0FC
:104C8000DC010E946D058EED92E00E94D2078F3309
:104C900009F08DC58EED92E00E9431098BE396E01C
:104CA0000E941E0C89E296E00E941E0C80E096E0B5
:104CB0000E941E0C87EE95E00E941E0C85EC95E08C
:104CC0000E941E0C8DE995E00E941E0C0E94030FAD
:104CD00011E066246394712C04EFA02EBB24B394DE
:104CE00088E8882E83E1982E8EED92E00E9482085B
:104CF000181619060CF04EC08EED92E00E94D207F5
:104D0000F3CF10925C0210925B028DCF69E170E0EC
:104D100080E090E00E94560780915B0290915C02D7
:104D20000196853B910574F590935C0280935B023C
:104D30007ACF84EB90E090935C0280935B02809149
:104D40005A02882339F010925C0210925B02109292
:104D5000600269CF809159028111F5CF64CF8091B3
:104D6000AC049091AD0490935C0280935B028091BF
:104D70005A028111E8CF809159028111E4CF8091CC
:104D80005802EACF84EB90E0CFCF8091AC049091B1
:104D9000AD04CACF8EED92E00E948208892BD1F338
:104DA0008EED92E00E94D207082FEFECE80FEA3474
:104DB00008F033C20E2E000CFF0BEF51F94D0C948E
:104DC000C42D4F295E296E290D290D290D290D2984
:104DD0000D290D290D290D290D290D290D290D2923
:104DE0000D292B2762278B27B527E027FC279D2934
:104DF000ED270D290628E828272839280D298F298D
:104E00003B2A12280D290D290D29FC28A029262B23
:104E10002029312940290D290D290D290D290D2978
:104E20000D292B2762278B27B527E027FC279D29F3
:104E3000ED270D290628E828272839280D297E295D
:104E40003B2A1228202817280D29FC28A029262BC8
:104E50002029312940290E942608E62E0E94260892
:104E6000EA9422E02E1548F1F12C67013BE0C30ED5
:104E7000D11CF601EE0FFF1FEA56FB4F71836083D2
:104E8000653B710510F064EB70E0718360838FED1A
:104E900099E00E941109C70101960E94BA0D8AED9E
:104EA00099E00E941109F601EE0FFF1FEA56FB4F31
:104EB000808191810E94E00E17CF84EC99E00E94DE
:104EC0001E0C12CF0E942608C62E0E942608CA94E5
:104ED00042E08BE899E04C1590F3D12C9601220F1B
:104EE000331FF901EE54FB4F7F01718360838AEA1F
:104EF00099E00E941109C60101960E94BA0D85EA47
:104F000099E00E941109F701808191810E94F60DBC
:104F100081EA99E0D4CF0E942608C62E0E94260876
:104F2000CA94F2E082E599E0FC1548F2D12C960192
:104F3000220F331FA90148545B4F7A01FA01718394
:104F4000608381E799E00E941109C60101960E94E1
:104F5000BA0D8CE699E00E941109F70180819181D8
:104F60000E94F60D88E699E0AACF0E942608C62E78
:104F70000E942608CA94F2E087E199E0FC1508F443
:104F80009ECFD12C9601220F331FA90142545B4FB3
:104F90007A01FA017183608386E399E00E94110926
:104FA000C60101960E94BA0D81E399E00E941109A1
:104FB000F701808191810E94F60D8DE299E07FCF0B
:104FC0000E942608062F85E099E00E9411090093AF
:104FD0009C04802F0E94F50E87CE0E9426086B014C
:104FE00089ED98E00E941109D092A104C092A0041A
:104FF000C6010E94E80D78CE0E942608062F88EC94
:1050000098E00E94110900939D04E3CF0E942608B6
:105010006B018AEA98E00E941109D092A304C09221
:10502000A204E6CF86E998E00E941E0CF6C085E84F
:1050300098E00E941E0C0E94990D84E798E03FCFF3
:1050400084ED91E00E94C90B0E94030F4DCE84E6CF
:1050500098E00E941E0C1092A4041092A5041092D5
:10506000A6041092A70460E070E0CB010E94D10E6C
:105070003BCE0E94F407FC0197FDA6C08D3291053E
:1050800059F0C0970A9740F0EE32F10529F08EED05
:1050900092E00E94D207EDCF212C312C80E8482EDF
:1050A0008FE3582EC12CD12C760100E01F82E13015
:1050B000F10549F1ED32F105D1F1EE32F105D1F111
:1050C000CF01C0970A97F8F4AAE0B0E0A7019601D3
:1050D0000E94502D6F01FF0FEE08FF08C60ED71E6D
:1050E000E81EF91EF0E3CF1AD108E108F108002309
:1050F00051F02DEC3CEC4CEC5DE3C201B1010E949F
:105100005D2C1B012C018EED92E00E94D2070E94C3
:10511000F407FC01C0970A9750F2EE32F10561F4F2
:10512000002329F29F810F8191110DC01AC021E047
:105130002F83E9CF01E0E7CFE130F10509F4B7CFE4
:105140003F81332341F0F094E094D094C094C11C8B
:10515000D11CE11CF11CC701B6010E94FE2B0023EB
:1051600041F0C701B6010E94FE2BA20191010E94ED
:105170005D2C20E030E040E251E40E945D2C20E014
:1051800030E040E05FE30E94DF2D0E94362F609305
:10519000A8047093A9048093AA049093AB048EE4AE
:1051A00098E00E9411096091A8047091A90480916F
:1051B000AA049091AB040E94FC2B20E030E040E276
:1051C00051E40E94BD2E52CF60E070E0CB01D1CF00
:1051D0008FE298E00E9411090E942608653B710544
:1051E00010F064EB70E060939E0486E298E00E9409
:1051F000110980919E04EECE0E9426086536710545
:1052000010F064E670E06093C4048FEF97E00E94B2
:1052100011098091C4040E94F50E013709F064CD94
:1052200080E090E0892B11F40C94F8200E948E0805
:10523000882311F40C94F8200E9400000C94F820AC
:105240000E942608709397046093960488EF97E075
:105250000E941E0C80919604909197040E94E80D84
:10526000DCCF0E942608709399046093980481EF24
:1052700097E00E941E0C8091980490919904EECFC3
:105280000E94260870939B0460939A048AEE97E02C
:105290000E941E0C80919A0490919B04DFCF0E9483
:1052A00026086330710508F060E06093C5048DEC5A
:1052B00097E00E9411098091C5048CCE0E942608B7
:1052C0006330710510F061E070E06093C60481EB1B
:1052D00097E00E9411098091C6047CCE0E942608A6
:1052E0006330710510F062E070E06093C70486E9F6
:1052F00097E00E9411098091C7046CCE8DE897E079
:105300000E94110960E087E00E943B0660E088E0AF
:105310000E943B0660E089E00E943B06E5CC85E800
:1053200097E00E94110961E087E00E943B0661E07E
:1053300088E00E943B0661E0EECF0E948517D4CC46
:1053400080E597E00E941E0C8EED92E00E9482089C
:10535000181619062CF48EED92E00E94D207F4CFB5
:105360008EED92E00E948208892BD1F38EED92E0BF
:105370000E94D2078F7D893509F07AC07092970418
:1053800060929604709299046092980470929B04C3
:1053900060929A0410939C0410939D0410939E04B1
:1053A00010939F0448E250E05093A1044093A0045E
:1053B00084E190E09093A3048093A2041092A4044B
:1053C0001092A5041092A6041092A7041092A804AB
:1053D0001092A9041092AA041092AB04E8E7F0E03E
:1053E000F093AD04E093AC042CE830E03093AF04CC
:1053F0002093AE0444EB50E05093B1044093B004CA
:1054000080E49CE99093B3048093B2049093B50434
:105410008093B4049093B7048093B604B092B90417
:10542000A092B804B092BB04A092BA04B092BD049A
:10543000A092BC049092BF048092BE049092C104DA
:105440008092C0049092C3048092C20482E0809350
:10545000C4041092C5041093C6048093C7040E942C
:10546000990D89E197E00E941E0C81EE96E0DCCD5B
:1054700088EC96E0D9CD80EC96E00E941E0C8091DD
:105480009604909197040E94BA0D8CE20E942C0918
:1054900080919804909199040E94BA0D8CE20E9428
:1054A0002C0980919A0490919B040E94BA0D8CE281
:1054B0000E942C0980919C040E94EE0E8CE20E94B6
:1054C0002C0980919D040E94EE0E8CE20E942C0912
:1054D00080919E040E94EE0E8CE20E942C09809125
:1054E0009F040E94EE0E8CE20E942C098091A00481
:1054F0009091A1040E94BA0D8CE20E942C09809127
:10550000A2049091A3040E94BA0D8CE20E942C097F
:105510006091A4047091A5048091A6049091A704C1
:105520004AE00E94850B8CE20E942C096091A8043D
:105530007091A9048091AA049091AB044AE00E9462
:10554000850B8CE20E942C098091AC049091AD04F3
:105550000E94F60D8CE20E942C098091AE0490917D
:10556000AF040E94F60D8CE20E942C098091B004D9
:105570009091B1040E94F60D8CE20E942C0980915A
:10558000B2049091B3040E94F60D8CE20E942C09A3
:105590008091B4049091B5040E94F60D8CE20E94B3
:1055A0002C098091B6049091B7040E94F60D8CE20C
:1055B0000E942C098091B8049091B9040E94F60DC4
:1055C0008CE20E942C098091BA049091BB040E9445
:1055D000F60D8CE20E942C098091BC049091BD04D0
:1055E0000E94F60D8CE20E942C098091BE049091DD
:1055F000BF040E94F60D8CE20E942C098091C00429
:105600009091C1040E94F60D8CE20E942C098091B9
:10561000C2049091C3040E94F60D8CE20E942C09F2
:105620008091C4040E94EE0E8CE20E942C098091AD
:10563000C5040E94EE0E8CE20E942C098091C604E3
:105640000E94EE0E8CE20E942C0955CE82E996E073
:105650000E941E0C0E942608709397046093960483
:105660000E94260870939904609398040E9426086B
:1056700070939B0460939A040E94260860939C0494
:105680000E94260860939D040E94260860939E0451
:105690000E94260860939F040E9426087093A1042C
:1056A0006093A0040E9426087093A3046093A20450
:1056B0000E9426086093A4047093A5048093A60416
:1056C0009093A7040E9426086093A8047093A904ED
:1056D0008093AA049093AB040E9426087093AD04B3
:1056E0006093AC040E9426087093AF046093AE04EC
:1056F0000E9426087093B1046093B0040E942608AB
:105700007093B3046093B2040E9426087093B504AA
:105710006093B4040E9426087093B7046093B604A3
:105720000E9426087093B9046093B8040E9426086A
:105730007093BB046093BA040E9426087093BD0462
:105740006093BC040E9426087093BF046093BE045B
:105750000E9426087093C1046093C0040E9426082A
:105760007093C3046093C2040E9426086093C4042B
:105770000E9426086093C5040E9426086093C60410
:105780000E9426086093C7040E94990D83E696E064
:105790000E941E0C8EED92E00E94820818161906D7
:1057A0000CF03BCD8EED92E00E94D207F3CF813218
:1057B00081F480915F0291E0892780935F028823C2
:1057C00029F08AE19AE00E941E0C2ACD8AE09AE034
:1057D000FACF8F7D813509F023CD80915F02882338
:1057E00009F41ECD10925F028AEF99E0ECCF0E947F
:1057F000392C08F481E00895E89409C097FB3EF441
:1058000090958095709561957F4F8F4F9F4F99230D
:10581000A9F0F92F96E9BB279395F695879577958B
:105820006795B795F111F8CFFAF4BB0F11F460FF4B
:105830001BC06F5F7F4F8F4F9F4F16C0882311F0A3
:1058400096E911C0772321F09EE8872F762F05C0B7
:10585000662371F096E8862F70E060E02AF09A9552
:10586000660F771F881FDAF7880F9695879597F947
:105870000895990F0008550FAA0BE0E8FEEF1616E1
:105880001706E807F907C0F012161306E407F50734
:1058900098F0621B730B840B950B39F40A2661F0A8
:1058A000232B242B252B21F408950A2609F4A1404B
:1058B000A6958FEF811D811D08950E94702C0C9478
:1058C000E12C0E94D32C38F00E94DA2C20F0952392
:1058D00011F00C94CA2C0C94D02C11240C94152D7E
:1058E0000E94F22C70F3959FC1F3950F50E0551F65
:1058F000629FF001729FBB27F00DB11D639FAA2725
:10590000F00DB11DAA1F649F6627B00DA11D661F73
:10591000829F2227B00DA11D621F739FB00DA11D94
:10592000621F839FA00D611D221F749F3327A00D4E
:10593000611D231F849F600D211D822F762F6A2FEA
:1059400011249F5750409AF0F1F088234AF0EE0F4F
:10595000FF1FBB1F661F771F881F91505040A9F77C
:105960009E3F510580F00C94CA2C0C94152D5F3F7E
:10597000E4F3983ED4F3869577956795B795F795B8
:10598000E7959F5FC1F7FE2B880F911D9695879530
:1059900097F9089597F99F6780E870E060E00895AF
:1059A0009FEF80EC089500240A9416161706180637
:1059B0000906089500240A94121613061406050613
:1059C0000895092E0394000C11F4882352F0BB0FA4
:1059D00040F4BF2B11F460FF04C06F5F7F4F8F4F07
:1059E0009F4F089557FD9058440F551F59F05F3F42
:1059F00071F04795880F97FB991F61F09F3F79F0F1
:105A000087950895121613061406551FF2CF469572
:105A1000F1DF08C0161617061806991FF1CF8695F4
:105A20007105610508940895E894BB2766277727D8
:105A3000CB0197F90895F999FECF92BD81BDF89AEF
:105A4000992780B50895262FF999FECF1FBA92BDE8
:105A500081BD20BD0FB6F894FA9AF99A0FBE01964F
:105A60000895052E97FB1EF400940E94482D57FDC3
:105A700007D00E94632D07FC03D04EF40C94482DF0
:105A800050954095309521953F4F4F4F5F4F08956A
:105A900090958095709561957F4F8F4F9F4F08959A
:105AA0000E94852DA59F900DB49F900DA49F800D01
:105AB000911D11240895B7FF0C94502D0E94502D74
:105AC000821B930B0895A1E21A2EAA1BBB1BFD019A
:105AD0000DC0AA1FBB1FEE1FFF1FA217B307E407CD
